:020000040000FA
:060000000A128A11FC2F18
:100E70007008831203139F007208831603139F00E8
:100E8000831203131F144230F400F40B452F0000AB
:100E9000831203139F149F184E2F4F2F4B2F1E08A2
:100EA000F100831603131E08F00008000F308316AC
:100EB00003138500860187010F308316031788000E
:100EC000831203138501860187010130F000003091
:100ED000F1008030F2000030F3000A128A11382746
:100EE0000A128A117108F7007008F6000530F00048
:100EF0000030F1008030F2000030F3000A128A1155
:100F000038270A128A117108F9007008F8000930B0
:100F1000F0000030F1008030F2000030F3000A12DF
:100F20008A1138270A128A117108FB007008FA002A
:100F30000D30F0000030F1008030F2000030F3009E
:100F40000A128A1138270A128A117108FD007008E6
:100F5000FC008312031387017708803AFF0080307A
:100F60007F02031DB52F97307602031CB82FB92FCF
:100F7000BF2F1030F5007508831203138707790817
:100F8000803AFF0080307F02031DC82F973078021F
:100F9000031CCB2FCC2FD22F2030F50075088312E5
:100FA000031387077B08803AFF0080307F02031D10
:100FB000DB2F97307A02031CDE2FDF2FE52F403026
:100FC000F50075088312031387077D08803AFF0038
:100FD00080307F02031DEE2F97307C02031CF12F1F
:100FE000F22F652F8030F5007508831203138707F1
:100FF000652F0A128A11002883010A128A11562FBE
:04400E00F2E7FFFFD7
:00000001FF
