:020000040000FA
:060000000A128A11FC2F18
:100E68007008831203139F007208831603139F00F0
:100E7800831203131F142130F400F40B412F831243
:100E880003139F149F18492F4A2F462F1E08F1005D
:100E9800831603131E08F00008000F30831603138F
:100EA8008500860187010F30831603178800831297
:100EB80003138501860187010130F0000030F1003D
:100EC8008030F2000030F3000A128A1134270A1227
:100ED8008A117108F7007008F6000530F00000303C
:100EE800F1008030F2000030F3000A128A11342732
:100EF8000A128A117108F9007008F8000930F00028
:100F08000030F1008030F2000030F3000A128A113C
:100F180034270A128A117108FB007008FA000D3094
:100F2800F0000030F1008030F2000030F3000A12C7
:100F38008A1134270A128A117108FD007008FC0012
:100F48008312031387017708803AFF0080307F02FD
:100F5800031DB02F97307602031CB32FB42FBA2F7E
:100F68001030F50075088312031387077908803A53
:100F7800FF0080307F02031DC32F97307802031CC7
:100F8800C62FC72FCD2F2030F50075088312031305
:100F980087077B08803AFF0080307F02031DD62F29
:100FA80097307A02031CD92FDA2FE02F4030F50052
:100FB80075088312031387077D08803AFF00803085
:100FC8007F02031DE92F97307C02031CEC2FED2FC5
:100FD800F32F8030F5007508831203138707A630B6
:100FE800F500F50BF52F0000602F0A128A11002872
:080FF80083010A128A11512F36
:04400E00F2E7FFFFD7
:00000001FF
